{
  "_format": "hh-sol-artifact-1",
  "contractName": "SettlementPayment",
  "sourceName": "contracts/SettlementPayment.sol",
  "abi": [
    {
      "inputs": [
        {
          "internalType": "address",
          "name": "_recipient",
          "type": "address"
        },
        {
          "internalType": "uint256",
          "name": "_settlementFee",
          "type": "uint256"
        }
      ],
      "stateMutability": "nonpayable",
      "type": "constructor"
    },
    {
      "anonymous": false,
      "inputs": [
        {
          "indexed": false,
          "internalType": "uint256",
          "name": "oldFee",
          "type": "uint256"
        },
        {
          "indexed": false,
          "internalType": "uint256",
          "name": "newFee",
          "type": "uint256"
        }
      ],
      "name": "FeeUpdated",
      "type": "event"
    },
    {
      "anonymous": false,
      "inputs": [
        {
          "indexed": true,
          "internalType": "address",
          "name": "oldRecipient",
          "type": "address"
        },
        {
          "indexed": true,
          "internalType": "address",
          "name": "newRecipient",
          "type": "address"
        }
      ],
      "name": "RecipientUpdated",
      "type": "event"
    },
    {
      "anonymous": false,
      "inputs": [
        {
          "indexed": true,
          "internalType": "bytes32",
          "name": "jobId",
          "type": "bytes32"
        },
        {
          "indexed": true,
          "internalType": "address",
          "name": "payer",
          "type": "address"
        },
        {
          "indexed": false,
          "internalType": "uint256",
          "name": "amount",
          "type": "uint256"
        },
        {
          "indexed": false,
          "internalType": "uint256",
          "name": "timestamp",
          "type": "uint256"
        }
      ],
      "name": "SettlementPaid",
      "type": "event"
    },
    {
      "inputs": [
        {
          "internalType": "string",
          "name": "jobId",
          "type": "string"
        }
      ],
      "name": "checkPayment",
      "outputs": [
        {
          "internalType": "bool",
          "name": "isPaid",
          "type": "bool"
        },
        {
          "internalType": "address",
          "name": "payer",
          "type": "address"
        },
        {
          "internalType": "uint256",
          "name": "amount",
          "type": "uint256"
        }
      ],
      "stateMutability": "view",
      "type": "function"
    },
    {
      "inputs": [],
      "name": "getRecipient",
      "outputs": [
        {
          "internalType": "address",
          "name": "",
          "type": "address"
        }
      ],
      "stateMutability": "view",
      "type": "function"
    },
    {
      "inputs": [],
      "name": "getSettlementFee",
      "outputs": [
        {
          "internalType": "uint256",
          "name": "",
          "type": "uint256"
        }
      ],
      "stateMutability": "view",
      "type": "function"
    },
    {
      "inputs": [
        {
          "internalType": "string",
          "name": "jobId",
          "type": "string"
        }
      ],
      "name": "isJobPaid",
      "outputs": [
        {
          "internalType": "bool",
          "name": "",
          "type": "bool"
        }
      ],
      "stateMutability": "view",
      "type": "function"
    },
    {
      "inputs": [],
      "name": "owner",
      "outputs": [
        {
          "internalType": "address",
          "name": "",
          "type": "address"
        }
      ],
      "stateMutability": "view",
      "type": "function"
    },
    {
      "inputs": [
        {
          "internalType": "bytes32",
          "name": "",
          "type": "bytes32"
        }
      ],
      "name": "paidJobs",
      "outputs": [
        {
          "internalType": "address",
          "name": "",
          "type": "address"
        }
      ],
      "stateMutability": "view",
      "type": "function"
    },
    {
      "inputs": [
        {
          "internalType": "string",
          "name": "jobId",
          "type": "string"
        }
      ],
      "name": "payForSettlement",
      "outputs": [],
      "stateMutability": "payable",
      "type": "function"
    },
    {
      "inputs": [
        {
          "internalType": "bytes32",
          "name": "",
          "type": "bytes32"
        }
      ],
      "name": "paymentAmounts",
      "outputs": [
        {
          "internalType": "uint256",
          "name": "",
          "type": "uint256"
        }
      ],
      "stateMutability": "view",
      "type": "function"
    },
    {
      "inputs": [],
      "name": "recipient",
      "outputs": [
        {
          "internalType": "address",
          "name": "",
          "type": "address"
        }
      ],
      "stateMutability": "view",
      "type": "function"
    },
    {
      "inputs": [
        {
          "internalType": "address",
          "name": "newRecipient",
          "type": "address"
        }
      ],
      "name": "setRecipient",
      "outputs": [],
      "stateMutability": "nonpayable",
      "type": "function"
    },
    {
      "inputs": [
        {
          "internalType": "uint256",
          "name": "newFee",
          "type": "uint256"
        }
      ],
      "name": "setSettlementFee",
      "outputs": [],
      "stateMutability": "nonpayable",
      "type": "function"
    },
    {
      "inputs": [],
      "name": "settlementFee",
      "outputs": [
        {
          "internalType": "uint256",
          "name": "",
          "type": "uint256"
        }
      ],
      "stateMutability": "view",
      "type": "function"
    },
    {
      "inputs": [
        {
          "internalType": "address",
          "name": "newOwner",
          "type": "address"
        }
      ],
      "name": "transferOwnership",
      "outputs": [],
      "stateMutability": "nonpayable",
      "type": "function"
    }
  ],
  "bytecode": "0x608060405234801561001057600080fd5b5060405161095638038061095683398101604081905261002f916100b4565b6001600160a01b03821661007d5760405162461bcd60e51b8152602060048201526011602482015270125b9d985b1a59081c9958da5c1a595b9d607a1b604482015260640160405180910390fd5b60008054336001600160a01b031991821617909155600180549091166001600160a01b0393909316929092179091556002556100ee565b600080604083850312156100c757600080fd5b82516001600160a01b03811681146100de57600080fd5b6020939093015192949293505050565b610859806100fd6000396000f3fe6080604052600436106100c25760003560e01c80638da5cb5b1161007f578063a86ef50f11610059578063a86ef50f1461021d578063d5da4f1d14610253578063f2fde38b14610273578063f5b1c8061461029357600080fd5b80638da5cb5b1461018857806394837cea146101a85780639a2d5973146101ed57600080fd5b80631b88094d146100c75780632bd76b93146100fe5780633bbed4a01461011d57806366d003ac1461013f57806376ed56841461015f5780637d1d7fb814610172575b600080fd5b3480156100d357600080fd5b506001546001600160a01b03165b6040516001600160a01b0390911681526020015b60405180910390f35b34801561010a57600080fd5b506002545b6040519081526020016100f5565b34801561012957600080fd5b5061013d610138366004610735565b6102c0565b005b34801561014b57600080fd5b506001546100e1906001600160a01b031681565b61013d61016d366004610765565b610399565b34801561017e57600080fd5b5061010f60025481565b34801561019457600080fd5b506000546100e1906001600160a01b031681565b3480156101b457600080fd5b506101c86101c3366004610765565b6105a5565b6040805193151584526001600160a01b039092166020840152908201526060016100f5565b3480156101f957600080fd5b5061020d610208366004610765565b6105fb565b60405190151581526020016100f5565b34801561022957600080fd5b506100e16102383660046107d7565b6003602052600090815260409020546001600160a01b031681565b34801561025f57600080fd5b5061013d61026e3660046107d7565b610638565b34801561027f57600080fd5b5061013d61028e366004610735565b6106a3565b34801561029f57600080fd5b5061010f6102ae3660046107d7565b60046020526000908152604090205481565b6000546001600160a01b031633146102f35760405162461bcd60e51b81526004016102ea906107f0565b60405180910390fd5b6001600160a01b03811661033d5760405162461bcd60e51b8152602060048201526011602482015270125b9d985b1a59081c9958da5c1a595b9d607a1b60448201526064016102ea565b6001546040516001600160a01b038084169216907f62e69886a5df0ba8ffcacbfc1388754e7abd9bde24b036354c561f1acd4e459390600090a3600180546001600160a01b0319166001600160a01b0392909216919091179055565b806103d55760405162461bcd60e51b815260206004820152600c60248201526b115b5c1d1e481a9bd888125160a21b60448201526064016102ea565b60025434101561041e5760405162461bcd60e51b8152602060048201526014602482015273125b9cdd59999a58da595b9d081c185e5b595b9d60621b60448201526064016102ea565b60008282604051610430929190610813565b60408051918290039091206000818152600360205291909120549091506001600160a01b0316156104965760405162461bcd60e51b815260206004820152601060248201526f129bd888185b1c9958591e481c185a5960821b60448201526064016102ea565b600081815260036020908152604080832080546001600160a01b031916331790556004909152808220349081905560015491516001600160a01b03909216918381818185875af1925050503d806000811461050d576040519150601f19603f3d011682016040523d82523d6000602084013e610512565b606091505b50509050806105635760405162461bcd60e51b815260206004820152601760248201527f5061796d656e74207472616e73666572206661696c656400000000000000000060448201526064016102ea565b60408051348152426020820152339184917ff7ded5dcf4ce02dc81dd68754e1475acaf07b66cfffa9615736a28ff025f5fcc910160405180910390a350505050565b60008060008085856040516105bb929190610813565b6040805191829003909120600090815260036020908152828220546004909152919020546001600160a01b03909116801515989097509095509350505050565b600080838360405161060e929190610813565b60408051918290039091206000908152600360205220546001600160a01b03161515949350505050565b6000546001600160a01b031633146106625760405162461bcd60e51b81526004016102ea906107f0565b60025460408051918252602082018390527f528d9479e9f9889a87a3c30c7f7ba537e5e59c4c85a37733b16e57c62df61302910160405180910390a1600255565b6000546001600160a01b031633146106cd5760405162461bcd60e51b81526004016102ea906107f0565b6001600160a01b0381166107135760405162461bcd60e51b815260206004820152600d60248201526c24b73b30b634b21037bbb732b960991b60448201526064016102ea565b600080546001600160a01b0319166001600160a01b0392909216919091179055565b60006020828403121561074757600080fd5b81356001600160a01b038116811461075e57600080fd5b9392505050565b6000806020838503121561077857600080fd5b823567ffffffffffffffff8082111561079057600080fd5b818501915085601f8301126107a457600080fd5b8135818111156107b357600080fd5b8660208285010111156107c557600080fd5b60209290920196919550909350505050565b6000602082840312156107e957600080fd5b5035919050565b6020808252600990820152682737ba1037bbb732b960b91b604082015260600190565b818382376000910190815291905056fea2646970667358221220a151b6364aa44338fde3f18bacc4f2add0ec338a38b372f87e90003fea3b42ff64736f6c63430008180033",
  "linkReferences": {},
  "deployedLinkReferences": {}
}